{
  "contractName": "Adoption",
  "abi": [
    {
      "constant": true,
      "inputs": [
        {
          "name": "",
          "type": "uint256"
        }
      ],
      "name": "adopters",
      "outputs": [
        {
          "name": "",
          "type": "address"
        }
      ],
      "payable": false,
      "stateMutability": "view",
      "type": "function"
    },
    {
      "constant": true,
      "inputs": [],
      "name": "getAdopters",
      "outputs": [
        {
          "name": "",
          "type": "address[16]"
        }
      ],
      "payable": false,
      "stateMutability": "view",
      "type": "function"
    },
    {
      "constant": false,
      "inputs": [
        {
          "name": "petId",
          "type": "uint8"
        }
      ],
      "name": "adopt",
      "outputs": [
        {
          "name": "",
          "type": "uint8"
        }
      ],
      "payable": false,
      "stateMutability": "nonpayable",
      "type": "function"
    }
  ],
  "bytecode": "0x6060604052341561000f57600080fd5b6102ee8061001e6000396000f300606060405260043610610057576000357c0100000000000000000000000000000000000000000000000000000000900463ffffffff16806339ac79791461005c5780633de4eb171461009c57806343ae80d3146100ed575b600080fd5b341561006757600080fd5b610080600480803560ff16906020019091905050610150565b604051808260ff1660ff16815260200191505060405180910390f35b34156100a757600080fd5b6100af6101cd565b6040518082601060200280838360005b838110156100da5780820151818401526020810190506100bf565b5050505090500191505060405180910390f35b34156100f857600080fd5b61010e600480803590602001909190505061024e565b604051808273ffffffffffffffffffffffffffffffffffffffff1673ffffffffffffffffffffffffffffffffffffffff16815260200191505060405180910390f35b6000808260ff16101580156101685750600f8260ff16105b151561017357600080fd5b3360008360ff1660108110151561018657fe5b0160006101000a81548173ffffffffffffffffffffffffffffffffffffffff021916908373ffffffffffffffffffffffffffffffffffffffff160217905550819050919050565b6101d5610283565b6000601080602002604051908101604052809291908260108015610244576020028201915b8160009054906101000a900473ffffffffffffffffffffffffffffffffffffffff1673ffffffffffffffffffffffffffffffffffffffff16815260200190600101908083116101fa575b5050505050905090565b60008160108110151561025d57fe5b016000915054906101000a900473ffffffffffffffffffffffffffffffffffffffff1681565b610200604051908101604052806010905b600073ffffffffffffffffffffffffffffffffffffffff1681526020019060019003908161029457905050905600a165627a7a723058205c38664303dc9a576fb68556a50a9a91662ba6ff59ca8a240ed1f99714a101750029",
  "source": "pragma solidity ^0.4.17;\n\ncontract Adoption {\n\n  address[16] public adopters;\n\n  function getAdopters() public view returns (address[16]) {\n    return adopters;\n  }\n\n  function adopt(uint8 petId) public returns (uint8) {\n    require(petId >= 0 && petId < 15);\n\n    adopters[petId] = msg.sender;\n\n    return petId;\n  }\n\n}\n",
  "sourcePath": "/Users/Feynman/Desktop/eth-concourse/pet-shop/contracts/Adoption.sol",
  "compiler": {
    "name": "solc",
    "version": "0.4.19+commit.c4cbbb05.Emscripten.clang"
  },
  "schemaVersion": "1.0.1",
  "updatedAt": "2018-03-13T21:18:59.509Z"
}